:020000040800F2
:1000000000000220314900088149000881490008A8
:10001000814900088149000881490008000000006A
:1000200000000000000000000000000081490008FE
:10003000814900080000000081490008E11600081D
:100040008149000881490008814900088149000868
:100050008149000881490008814900088149000858
:100060008149000881490008814900088149000848
:100070008149000881490008814900088149000838
:1000800081490008814900088149000800000000FA
:10009000000000000000000000000000814900088E
:1000A0008149000881490008814900088149000808
:1000B000814900088149000881490008F9160008B3
:1000C00009170008191700082917000881490008B6
:1000D00081490008814900088149000800000000AA
:1000E000814900088149000881490008000000009A
:1000F000000000000000000000000000814900082E
:100100000000000081490008814900088149000879
:1001100000000000000000000000000000000000DF
:10012000E916000881490008814900088149000852
:1001300081490008000000000000000000000000ED
:1001400000000000000000000000000081490008DD
:100150008149000881490008814900088149000857
:1001600039170008491700080000000000000000CF
:10017000000000000000000000000000000000007F
:10018000000000008149000800000000000000009D
:080190008149000881490008C3
:100198000348044B834202D0034B03B1184770470E
:1001A8003400002034000020000000000548064903
:1001B8000B1AD90F01EBA301491002D0034B03B16D
:1001C8001847704734000020340000200000000069
:1001D80010B5064C237843B9FFF7DAFF044B13B187
:1001E8000448AFF300800123237010BD34000020C1
:1001F800000000008449000808B5044B1BB10449FD
:100208000448AFF30080BDE80840CFE700000000D5
:10021800380000208449000870B50D4E0D4D761B3E
:10022800B61006D0002455F8043B01349847A6427E
:10023800F9D1094E094D761B04F0A0FBB61006D083
:10024800002455F8043B01349847A642F9D170BD03
:10025800C4490008C4490008C8490008C44900083E
:10026800830730B548D0541E002A3FD0CAB203468F
:1002780001E0013C3AD303F8012B9D07F9D1032C87
:100288002DD9CDB245EA05250F2C45EA054536D9C5
:10029800A4F1100222F00F0C03F1200EE6444FEAFD
:1002A800121C03F1100242E9045542E902551032CA
:1002B8007245F8D10CF1010214F00C0F03EB021295
:1002C80004F00F0C13D0ACF1040323F00303043340
:1002D800134442F8045B9342FBD10CF003042CB1A5
:1002E800CAB21C4403F8012B9C42FBD130BD6446C2
:1002F8001346002CF4D1F9E703461446BFE71A4623
:10030800A446E0E753B94AB9002908BF00281CBF32
:100318004FF0FF314FF0FF3000F074B9ADF1080C29
:100328006DE904CE00F006F8DDF804E0DDE902230B
:1003380004B070472DE9F047089D04468E46002B0F
:100348004DD18A42944669D9B2FA82F252B101FA81
:1003580002F3C2F1200120FA01F10CFA02FC41EA91
:10036800030E94404FEA1C48210CBEFBF8F61FFA16
:100378008CF708FB16E341EA034306FB07F19942B1
:100388000AD91CEB030306F1FF3080F01F81994264
:1003980040F21C81023E63445B1AA4B2B3FBF8F03E
:1003A80008FB103344EA034400FB07F7A7420AD9C5
:1003B8001CEB040400F1FF3380F00A81A74240F2ED
:1003C80007816444023840EA0640E41B00261DB158
:1003D800D4400023C5E900433146BDE8F0878B428D
:1003E80009D9002D00F0EF800026C5E9000130464C
:1003F8003146BDE8F087B3FA83F6002E4AD18B4226
:1004080002D3824200F2F980841A61EB03030120CF
:100418009E46002DE0D0C5E9004EDDE702B9FFDEBB
:10042800B2FA82F2002A40F09280A1EB0C014FEA66
:100438001C471FFA8CFE0126200CB1FBF7F307FBC3
:10044800131140EA01410EFB03F0884208D91CEB66
:10045800010103F1FF3802D2884200F2CB80434603
:10046800091AA4B2B1FBF7F007FB101144EA0144E2
:100478000EFB00FEA64508D91CEB040400F1FF3171
:1004880002D2A64500F2BB800846A4EB0E0440EA5F
:1004980003409CE7C6F12007B34022FA07FC4CEA68
:1004A800030C20FA07F401FA06F31C43F9404FEA5B
:1004B8001C4900FA06F3B1FBF9F8200C1FFA8CFE70
:1004C80009FB181140EA014108FB0EF0884202FAC4
:1004D80006F20BD91CEB010108F1FF3A80F0888085
:1004E800884240F28580A8F102086144091AA4B242
:1004F800B1FBF9F009FB101144EA014100FB0EFEC3
:100508008E4508D91CEB010100F1FF346CD28E45F1
:100518006AD90238614440EA0840A0FB0294A1EB82
:100528000E01A142C846A64656D353D05DB1B3EBDF
:10053800080261EB0E0101FA07F722FA06F3F1400F
:100548001F43C5E9007100263146BDE8F087C2F1B6
:100558002003D8400CFA02FC21FA03F3914001432E
:100568004FEA1C471FFA8CFEB3FBF7F007FB103667
:100578000B0C43EA064300FB0EF69E4204FA02F413
:1005880008D91CEB030300F1FF382FD29E422DD966
:10059800023863449B1B89B2B3FBF7F607FB16339B
:1005A80041EA034106FB0EF38B4208D91CEB01011B
:1005B80006F1FF3816D28B4214D9023E6144C91A9B
:1005C80046EA004638E72E46284605E70646E3E6AB
:1005D8001846F8E64B45A9D2B9EB020864EB0C0EB5
:1005E8000138A3E74646EAE7204694E74046D1E7C4
:1005F800D0467BE7023B614432E7304609E7644472
:10060800023842E7704700BF0C4BA3FB0023DB080E
:1006180003EB830203EB4203C31ADBB2092B03D0BB
:10062800074AD05CC0B27047054A1378517A907A6D
:1006380041400B404340507858407047A38B2EBA36
:1006480020000020154BA3FB0023DB0803EB8302EB
:1006580003EB4203C01AC0B20A281BD8DFE800F037
:10066800141A1A1A1A1A1A1C1C060D000C4B997225
:1006780059720C4B01221A707047094B99725972C2
:10068800084B01221A707047054B1970054B01225F
:100698001A707047024B1954704700BFA38B2EBACB
:1006A800200000201E000020032800D9002072B678
:1006B800034B33F8100080B262B6C0F30B007047EA
:1006C8000800002010B500240DE02046FFF7ECFFDD
:1006D8006300C0F30321054A02F814100133C0B2C5
:1006E800D0540134E4B2032CEFD910BD100000201F
:1006F800144A1378DBB25278D2B213490B7013F054
:10070800F0030AD0102B14D091B2104B1980104B63
:100718001A70104B01221A7007E091B20B4B198026
:100728000B4B1A700B4B01221A700B4B00221A70DC
:10073800704791B2094B1980094B1A70054B012279
:100748001A70F2E7700000206E0000201A000020E6
:100758000000002004000020730000201C0000207E
:1007680002000020044B1B88DBB2044A1370044BC0
:100778001B88DBB2537070471A0000201800002055
:100788001C0000200023044A1370044A1370044A12
:1007980013705370704700BF730000207200002070
:1007A80070000020054B1B68DB6A03FB00F07F30FC
:1007B800034BA3FB0030C009704700BF2402002090
:1007C8008180808070B50C46054D2E68FFF7EAFFE2
:1007D800B0632D682046FFF7E5FFE86370BD00BFF2
:1007E8002402002008B5114B1B78C3B172B6104B18
:1007F8001878C0B20F4B1978C9B20F4B1B788342D7
:1008080003D10E4B1B788B420AD00B4B18700B4B45
:100818001970064B00221A7062B6FFF7D3FF08BDA5
:10082800024B00221A7062B6F9E700BF04000020EC
:10083800000000200200002001000020030000202A
:100848000288B0F802C08388C18842EA0C021343C8
:100858000B430CBF012000207047000072B60288CD
:10086800C2F30B02074B1A804288C2F30B025A806C
:100878008288C2F30B029A80C288C2F30B02DA8024
:1008880062B6704708000020014B01221A707047B9
:100898007A00002000B587B00023019302930393E8
:1008A8000493059301910AB10123029301A901F070
:1008B80051FE07B05DF804FB70B50C4615464FF0C5
:1008C800010C0CFA00FC1CEA030F05D00022294693
:1008D8002046FFF7DFFF70BD5FFA8CF6012229463C
:1008E8002046FFF7D7FF9DF810301E4214BF0122A3
:1008F80000222946204601F095FFECE770B582B04A
:1009080004460D460091034610221E490020FFF7B9
:10091800D3FF1D4E009523464FF4805231460120E7
:10092800FFF7CAFF009523464FF4005231460220D4
:10093800FFF7C2FF009523464FF48042314603205B
:10094800FFF7BAFF009523464FF4004231460420D2
:10095800FFF7B2FF00952346082231460520FFF72E
:10096800ABFF00952346202231460620FFF7A4FF5F
:10097800009523464FF4807231460720FFF79CFF0D
:1009880002B070BD000002400004024008B5114BDF
:100998001B78CBB172B6104B1878C0B2997AC9B22D
:1009A8000E4B1B78DBB2834204D10D4B1B78DBB2B4
:1009B8008B420AD0094B1870094B1970054B00225D
:1009C8001A7062B6FFF79AFF08BD024B00221A7030
:1009D80062B6F9E71E000020200000201F0000205A
:1009E8007400002030B589B0002403940494059461
:1009F8000694079400941B4B1A6B42F001021A6389
:100A08001A6B02F001020092009A01941A6B42F0EC
:100A180002021A631A6B02F002020192019A02940E
:100A28001A6B42F004021A631B6B03F0040302936F
:100A3800029B0D4D01224FF40051284601F0F2FEB1
:100A48004FF400530393012304930594069403A9D8
:100A5800284601F07FFD2146FF20FFF74FFF09B030
:100A680030BD00BF003802400008024010B502F057
:100A780013FA0446124B1B7843B9124B1B7823B167
:100A8800114B1868201A002810DA10BD00220C4BF0
:100A98001A700C4B0121197000F11E030A490B60F2
:100AA8004FF40051094801F0BDFEE6E7054B00226E
:100AB8001A7001224FF40051044801F0B3FEE4E734
:100AC8007A000020790000207C0000200008024005
:100AD80010B5054C204601F0C7F8204600F09EFFEF
:100AE800024B02221A7010BD800000206400002012
:100AF80008B502F0D1F9094B1860094B00221A70A9
:100B080004220849084801F005F818B9044B0122E5
:100B18001A7008BDFFF7DCFFFBE700BF6800002084
:100B280064000020500000208000002010B5094B10
:100B38001878094B1978FFF745FE084C0421204620
:100B480003F008FE0821204603F004FE044B0122AE
:100B58001A7010BD000000200200002024020020AE
:100B68000400002008B5054802F0EBFC044802F038
:100B7800E8FC044802F0E5FC08BD00BF280100209D
:100B88007C010020D001002030B583B00023009301
:100B98000193124800F0BEFED0B905460446032C66
:100BA80011D802210D4800F059FF68B90B4801F02F
:100BB80097F8C0F30B0002AB03EB440323F8080CCF
:100BC8000134E4B2EBE70125044800F027FF0DB932
:100BD80003B030BD6846FFF741FEF9E7800000200A
:100BE80010B582B002F058F91A4B1B68C31A092BCA
:100BF80008D90446174B1860174B1B78012B03D0F4
:100C0800FFF7C2FF02B010BD144B1A88C2F30B02E3
:100C1800ADF800205A88C2F30B02ADF802209A887A
:100C2800C2F30B02ADF80420DB88C3F30B03ADF865
:100C380006306846FFF712FE094B1868241AB4F507
:100C4800FA7FDFD96846FFF7FBFD0028DAD0FFF707
:100C58003FFFD7E76000002064000020500000201C
:100C68006800002038B502F017F90446134B1B68DA
:100C78000BB9124B1860124803F0CEFA114B1B78CF
:100C880043B9202819D0282817D00C4B1B68E31A21
:100C9800642B12D900230B4A13700B4A1370084DAA
:100CA800284602F06DFC284602F0A2FB00F0BAFAD2
:100CB800284602F046FC014B1C6038BD5800002055
:100CC800280100205C0000207700002038B5044689
:100CD8000D4603682D4A934206D02D4A93422FD0E1
:100CE8002C4A93423DD038BD02F0D6F82A4B186002
:100CF800012D1BD0294B00221A70294D2878FFF7A7
:100D080083FC2849087020230122204602F089FB31
:100D18002A780132244B83FB02135B1003EB830117
:100D280003EB4103D31ADBB22B70DCE71B4B002229
:100D38001A70042301221D49204602F0BAFBD2E7AB
:100D4800012908D0FFF7BEFC2023082218492046B5
:100D580002F067FBC7E704230122164902F0A9FB4A
:100D6800C1E7012908D0FFF7FDFC20230222124920
:100D7800204602F056FBB6E7FFF704FD20230222C7
:100D88000E49204602F095FBADE700BF0054004035
:100D980000580040005C0040580000207700002008
:100DA8007500002078000020E9A28B2E7600002034
:100DB800100000206D0000201800002070000020A6
:100DC80070B5044603682D4A934206D02C4A9342D4
:100DD8003DD02C4A934248D070BD2B4B1B78B3B9F9
:100DE8002A490A78D2B22A4BA3FB0203DB0803EB99
:100DF800830003EB4003D31ADBB2264A13700122A7
:100E0800214B1A700423204602F053FBE4E7214DDE
:100E180028781E4E3178FFF715FC2A7801321E4BD0
:100E280083FB02135B1003EB830103EB4103D31A2B
:100E3800DBB22B7002F030F8184B1860FFF724FD76
:100E4800042301223146204602F033FBC4E7144D47
:100E58002B78DBB2134A1370FFF716FD0423012227
:100E68002946204602F025FBB6E7FFF741FCFFF7CD
:100E78000BFD204602F065FBAEE700BF00540040C2
:100E880000580040005C00407700002076000020F9
:100E9800A38B2EBA75000020E9A28B2E58000020E3
:100EA8006D0000206C00002010B504460268084B55
:100EB8009A4205D0FFF7E8FC204602F042FB10BD3D
:100EC800044B00221A7001F0E7FF034B1860F1E7AA
:100ED80000540040770000205800002010B5044658
:100EE80003680A4A934206D0094A93420BD0204627
:100EF80002F027FB10BD074B00221A7001F0CCFF4F
:100F0800054B1860F3E7FFF73DFCF0E7005400409D
:100F1800005C0040770000205800002010B504460F
:100F28000368174A934213D0164A93421BD02046AF
:100F380002F05EFA2368124A934217D0124A93428B
:100F480017D0104A934217D0204602F0FAFA10BD83
:100F58000E4B00221A700E4B01221A7001F09CFFF2
:100F68000C4B1860E3E7FFF70DFCE0E700F05AF9D7
:100F7800EAE700F075F9E7E700F090F9E4E700BF69
:100F880000540040005C00400058004077000020FA
:100F98005C0000205800002072B6FEE700B595B04E
:100FA8003022002108A8FFF75BF90023039304937C
:100FB80005930693079301931E4A116C41F08051E3
:100FC8001164126C02F080520192019A02931A4A3B
:100FD800116841F440411160126802F440420292E3
:100FE800029A0221089101220B9210220C920E9172
:100FF8000F9310924FF4A8731193042312930723AD
:10100800139308A800F092FF80B90F2303930221DD
:101018000491002305934FF480520692079303A886
:1010280001F0D2F920B915B05DF804FBFFF7B4FF61
:10103800FFF7B2FF003802400070004008B501F029
:1010480005FFFFF7ABFFFFF7CDFC00F0D1F800F08C
:1010580019F8FFF74DFD00F0C1FAFFF767FD00F042
:10106800E1F800F0FDF800F019F9FFF77BFDFFF754
:101078008DFCFFF7B5FDFFF7B5FBFFF7F3FDFFF7B5
:10108800F5FCF4E700B585B00023009301930293C3
:1010980003932848284A02604FF4803242608360F4
:1010A80001220261027680F82030C36223498162FE
:1010B800C3600421C16180F83020436100F0FEFB69
:1010C80040BB002300930123019307230293694641
:1010D800184800F055FE00BB01230093022301933A
:1010E8006946144800F04CFED0B90223009303234C
:1010F800019369460F4800F043FEA0B9032300930B
:101108000423019369460B4800F03AFE70B905B014
:101118005DF804FBFFF740FFD3E7FFF73DFFDBE790
:10112800FFF73AFFE1E7FFF737FFE7E7FFF734FF9D
:10113800EDE700BF80000020002001400100000F03
:1011480030B589B00023039304930593069307935E
:10115800026803F1804303F590339A4201D009B045
:1011680030BD04460025019503F58C335A6C42F4D2
:1011780080725A645A6C02F480720192019A029544
:101188001A6B42F001021A631B6B03F0010302930E
:10119800029B0F2303930323049303A9114801F02F
:1011A800D9F91148114B036045608560C5604FF45B
:1011B800806303614FF4006343614FF4005383611C
:1011C8004FF48073C3614FF400330362456201F04A
:1011D800AFFB18B9044BA3639C63C0E7FFF7DCFEC1
:1011E800F8E700BF00000240C80000201064024079
:1011F80000B583B000220192094B196B41F48001BC
:1012080019631B6B03F480030193019B03213820AE
:1012180001F08AFD382001F0BFFD03B05DF804FB42
:101228000038024008B50B480B4B03600B4B43607A
:10123800002383604022C2604FF480420261436110
:101248008361C361036201F0F5FF00B908BDFFF7D0
:10125800A3FEFBE72801002000540040A0860100FF
:1012680008B50B480B4B03600B4B436000238360AE
:101278006822C2604FF48042026143618361C361A6
:10128800036201F0D7FF00B908BDFFF785FEFBE751
:101298007C01002000580040A086010008B50B48DA
:1012A8000B4B03600B4B4360002383605822C260E2
:1012B8004FF48042026143618361C361036201F0BC
:1012C800B9FF00B908BDFFF767FEFBE7D0010020B2
:1012D800005C0040A08601002DE9F0418CB000239D
:1012E8000793089309930A930B930368654A9342FB
:1012F80008D0654A934238D0644A934279D00CB0FA
:10130800BDE8F08100240094614D2B6B43F002038B
:101318002B632B6B03F002030093009BC0230793FE
:101328001223089303230A9304230B9307A959480C
:1013380001F010F901942B6C43F400132B642B6C0F
:1013480003F400130193019B224621461F2001F05C
:10135800EBFC1F2001F020FD22462146202001F051
:10136800E3FC202001F018FDC9E700240294484D51
:101378002B6B43F002032B632B6B03F002030293E6
:10138800029B4FF4806307934FF01208CDF820803A
:1013980003270A9704230B933E4E07A9304601F012
:1013A800D9F84FF400730793CDF8208009940A9771
:1013B80009230B9307A9304601F0CCF803942B6C52
:1013C80043F480032B642B6C03F480030393039B87
:1013D80022462146212001F0A7FC212001F0DCFC57
:1013E80022462146222001F09FFC222001F0D4FC55
:1013F80085E700250495264C236B43F001032363FE
:10140800236B03F001030493049B0595236B43F0BE
:1014180002032363236B03F002030593059B4FF438
:10142800807307931227089703260A9604230B93C1
:1014380007A9194801F08EF8102307930897099512
:101448000A9609230B9307A9124801F083F8069519
:10145800236C43F400032364236C03F40003069312
:10146800069B2A462946482001F05EFC482001F0E8
:1014780093FC2A462946492001F056FC492001F0F0
:101488008BFC3CE70054004000580040005C0040E2
:1014980000380240000402400000024010B5036812
:1014A800264A934206D0264A934219D0254A9342A7
:1014B8002ED010BD02F5F232136C23F4001313641E
:1014C800214C4021204601F025F98021204601F0D9
:1014D80021F91F2001F06EFC202001F06BFCE8E7E9
:1014E80002F5F032136C23F480031364164C4FF4A6
:1014F8008061204601F00EF94FF40071204601F09A
:1015080009F9212001F056FC222001F053FCD0E714
:1015180002F5EE32136C23F4000313644FF4807168
:101528000A4801F0F7F81021074801F0F3F84820BD
:1015380001F040FC492001F03DFCBAE700540040AE
:1015480000580040005C00400004024000000240D7
:101558000268094B9A4200D0704782B00023019379
:10156800064B5A6C42F001025A645B6C03F00103AB
:101578000193019B02B0704700000140003802400F
:1015880000B587B000230193029303930493059356
:1015980002680F4B9A4202D007B05DF804FB0023A3
:1015A80000930C4B1A6B42F001021A631B6B03F099
:1015B80001030093009B4FF4C0630193022302933D
:1015C8000123059301A9044800F0C4FFE4E700BF24
:1015D80000000140003802400000024010B596B0FB
:1015E800002412941394149415941094119409944B
:1015F8000A940B940C940D940E940F942022214677
:1016080001A8FEF72DFE3248324B03606323436086
:10161800846040F2E733C36004614461846102F08E
:1016280005FF00283FD14FF48053129312A9284890
:1016380003F001F8002839D1254802F023FF0028DB
:1016480037D100231093119310A9214803F0FAF819
:10165800002831D16023099300230A930B930C933C
:101668000D930E930F93042209A9194802F068FFFD
:1016780028BB082209A9164802F062FF10BB002304
:10168800019302930393049305934FF40052069237
:10169800089301A90E4803F013F9B0B90C48FFF7F5
:1016A8006FFF16B010BDFFF777FCBCE7FFF774FCBF
:1016B800C2E7FFF771FCC4E7FFF76EFCCAE7FFF764
:1016C8006BFCD6E7FFF768FCD9E7FFF765FCE5E7B1
:1016D800240200200000014008B501F0D1FB08BD3C
:1016E80008B5024801F01CFA08BD00BFC800002078
:1016F80008B5024802F05EFC08BD00BF28010020C2
:1017080008B5024802F026FD08BD00BF28010020E8
:1017180008B5024802F04EFC08BD00BF7C0100205D
:1017280008B5024802F016FD08BD00BF7C01002084
:1017380008B5024802F03EFC08BD00BFD0010020F9
:1017480008B5024802F006FD08BD00BFD001002020
:1017580082B0002100910B4B5A6C42F480425A64CB
:101768005A6C02F480420092009A01911A6C42F07D
:1017780080521A641B6C03F080530193019B02B0E2
:10178800704700BF003802404A4B5A6822F4403282
:101798005A605A6841680A435A600268536823F4D9
:1017A8008073536002685368016943EA01235360F8
:1017B8000268536823F04073536002685368816875
:1017C8000B4353600268936823F4006393600268D4
:1017D8009368C1680B439360826A374B9A4257D02B
:1017E8000268936823F07063936002689368816A63
:1017F8000B4393600268936823F040539360026838
:101808009368C16A0B4393600268936823F00203EC
:10181800936002689368017E43EA4103936090F8FD
:101828002030002B3FD00268536843F400635360B4
:101838000268536823F46043536001684B68426A46
:10184800013A43EA42334B600268D36A23F47003D7
:10185800D3620168CB6AC269013A43EA0253CB6298
:101868000268936823F4007393600268936890F8A1
:10187800301043EA412393600268936823F480633D
:10188800936002689368416943EA812393607047D3
:101898000268936823F0706393600268936823F08A
:1018A80040539360B0E70268536823F400635360C1
:1018B800CAE700BF002301400100000F38B310B58C
:1018C8000446036C43B1236C13F0100F0BD00120B6
:1018D800002384F83C3010BDFFF732FC002363641A
:1018E80084F83C30EFE7236C23F4885323F0020399
:1018F80043F0020323642046FFF746FF002060649C
:10190800236C23F0030343F001032364E0E7012081
:101918007047000082B00023019390F83C30012BFF
:101928006ED0012380F83C3003689A6812F0010FEA
:1019380013D19A6842F001029A60344B1B68344A0A
:10194800A2FB03239B0C03EB4303019302E0019BDF
:10195800013B0193019B002BF9D10268936813F0B6
:10196800010F42D0036C23F4E06323F0010343F436
:1019780080730364536813F4806F05D0036C23F4F9
:10198800405343F480530364036C13F4805F19D00D
:10199800436C23F006034364002380F83C306FF067
:1019A800220313601B4B5B6813F01F0F0DD10368F4
:1019B8009A6812F0405F25D19A6842F080429A6096
:1019C80000201BE000234364E6E70368124A9342C1
:1019D80001D0002012E09A6812F0405F14D19A6892
:1019E80042F080429A60002008E0036C43F0100344
:1019F8000364436C43F001034364002002B0704762
:101A08000220FBE70020F9E70020F7E7300000207C
:101A180083DE1B43002301400020014090F83C3046
:101A2800012B19D0012380F83C300268936823F019
:101A38000103936003689B6813F0010F07D1036CDF
:101A480023F4885323F0010343F0010303640023C4
:101A580080F83C30184670470220704770B504463D
:101A68000D4603689A6812F4806F03D09B6813F4DC
:101A7800807F19D101F010FA064623681A6812F01F
:101A8800020F20D1B5F1FF3FF7D0B5B923681B6825
:101A980013F0020FF1D1236C43F0040323640023F5
:101AA80084F83C30032032E0036C43F020030364E5
:101AB800002380F83C30012029E001F0EDF9801B7B
:101AC800A842DAD9E2E76FF012021A60236C43F4F5
:101AD8000073236423689A6812F0405F16D1207E51
:101AE800B0B9DA6A12F4700F03D09B6813F4806FF0
:101AF8000DD1236C23F480732364236C13F4805F6B
:101B080005D1236C43F00103236400E0002070BD7D
:101B18000020FCE710B582B013460022019290F82D
:101B28003C20012A00F090800446012280F83C20E5
:101B38000268906810F0010F13D1906840F001001E
:101B48009060424A1068424AA2FB0020800C00EBD9
:101B58004000019002E001980138019001980028A6
:101B6800F9D12268906810F4807F03D0906820F43F
:101B7800807090602268906810F0010F59D0206C36
:101B880020F4E06020F0010040F480702064526886
:101B980012F4806F05D0226C22F4405242F4805235
:101BA8002264226C12F4805F33D0626C22F0060249
:101BB8006264002284F83C20A26B2648D063A26BA2
:101BC80025481064A26B2548D06422686FF0220073
:101BD80010602068426842F0806242602068826833
:101BE80042F48072826020680A4600F14C01A06BC2
:101BF80000F004FF1A4B5B6813F01F0F0CD1236829
:101C08009A6812F0405F1DD19A6842F080429A604B
:101C180018E000226264CCE72368124A934211D18B
:101C28009A6812F0405F0DD19A6842F080429A603B
:101C380008E0236C43F010032364636C43F0010352
:101C48006364002002B010BD0220FBE730000020D2
:101C580083DE1B43151D0008F31C0008FF1C000849
:101C6800002301400020014090F83C30012B35D082
:101C780010B50446012380F83C300268936823F0CD
:101C88000103936003689A6812F0010F21D19A68E2
:101C980022F480729A60806B90F83530DBB2022BA8
:101CA8000ED000202268536823F080635360236CB1
:101CB80023F4885323F0010343F00103236409E06C
:101CC80000F0D1FE0028EDD0236C43F040032364DC
:101CD800E8E70020002384F83C3010BD022070475C
:101CE8000368D86C70477047704708B5806BFFF77A
:101CF800FBFF08BD704708B5806B40230364436C45
:101D080043F004034364FFF7F5FF08BD08B5034635
:101D1800806B026C12F0500F25D1036C43F40073F2
:101D2800036403689A6812F0405F19D1027EBAB959
:101D3800DA6A12F4700F03D09A6812F4806F0FD128
:101D48005A6822F020025A60036C23F480730364FB
:101D5800036C13F4805F03D1036C43F00103036445
:101D6800FFF7C1FF08BD026C12F0100F04D1826B9F
:101D7800D26C18469047F5E7FFF7BCFFF2E7000082
:101D880030B482B00023019390F83C30012B00F06E
:101D9800C080012380F83C300B68092B41D90468C6
:101DA800E2689BB203EB43031E3B4FF0070C0CFAAF
:101DB80003F322EA0303E3600468E2680B8803EB99
:101DC80043031E3B8D6805FA03F31343E3604B6836
:101DD800062B3DD80468626B03EB8303053B4FF089
:101DE8001F0C0CFA03F322EA030363630468626BB3
:101DF8004B6803EB8303053BB1F800C00CFA03F30F
:101E0800134363630268444B9A4251D00268424BC1
:101E18009A425AD0002380F83C30184602B030BCB1
:101E28007047046822699BB203EB43034FF0070C29
:101E38000CFA03F322EA03032361046822690B887E
:101E480003EB43038D6805FA03F313432361BEE7ED
:101E58000C2B16D805682A6B03EB8303233B1F243E
:101E680004FA03F322EA03032B6305682A6B4B6821
:101E780003EB8303233B0C8804FA03F313432B631C
:101E8800C0E70568EA6A03EB8303413B1F2404FAB1
:101E980003F322EA0303EB620568EA6A4B6803EB83
:101EA8008303413B0C8804FA03F31343EB62A9E76D
:101EB8000B68122BAAD1194B5A6822F400025A60F7
:101EC8005A6842F480025A60A0E70B68144A9342A9
:101ED80001D0112B9ED1114B5A6822F480025A600E
:101EE8005A6842F400025A600A680D4B9A4291D12E
:101EF8000C4B1B680C4AA2FB03239B0C03EB8303CC
:101F08005B000193019B002B84D0019B013B019353
:101F1800F8E7022082E700BF0020014000230140CB
:101F2800120000103000002083DE1B43002800F060
:101F3800E08170B582B00446036813F0010F3BD00E
:101F48009F4B9B6803F00C03042B2CD09C4B9B6885
:101F580003F00C03082B21D06368B3F5803F4FD002
:101F6800B3F5A02F52D0964B1A6822F480321A602B
:101F78001A6822F480221A606368002B50D000F09F
:101F88008BFF05468E4B1B6813F4003F14D100F0FD
:101F980083FF401B6428F5D90320B1E1884B5B68B7
:101FA80013F4800FD8D0864B1B6813F4003F03D07E
:101FB8006368002B00F09F81236813F0020F54D050
:101FC8007F4B9B6813F00C0F3ED07D4B9B6803F052
:101FD8000C03082B33D0E368002B68D0794B01221F
:101FE8001A6000F059FF0546754B1B6813F0020F85
:101FF80054D100F051FF401B0228F5D903207FE19E
:102008006F4A136843F480331360B5E76C4B1A6862
:1020180042F480221A601A6842F480321A60ABE7F0
:1020280000F03AFF0546664B1B6813F4003FC3D027
:1020380000F032FF401B6428F5D9032060E1604BB3
:102048005B6813F4800FC6D15D4B1B6813F0020F59
:1020580003D0E368012B40F05081594A136823F0FC
:10206800F803216943EAC1031360236813F0080FDA
:1020780042D063696BB3534B0122C3F8802E00F042
:102088000BFF05464E4B5B6F13F0020F34D100F087
:1020980003FF401B0228F5D9032031E1484A1368A1
:1020A80023F0F803216943EAC1031360DDE7454BD8
:1020B80000221A6000F0F0FE0546414B1B6813F041
:1020C800020FD2D000F0E8FE401B0228F5D9032009
:1020D80016E13C4B0022C3F8802E00F0DDFE0546D9
:1020E800374B5B6F13F0020F06D000F0D5FE401B94
:1020F8000228F5D9032003E1236813F0040F77D0F1
:102108002F4B1B6C13F0805F33D1002301932C4BB2
:102118001A6C42F080521A641B6C03F080530193CE
:10212800019B0125284B1B6813F4807F23D0A368EB
:10213800012B34D0052B38D0214B1A6F22F0010225
:102148001A671A6F22F004021A67A368002B3DD0A1
:1021580000F0A2FE06461A4B1B6F13F0020F46D181
:1021680000F09AFE801B41F288339842F3D903208D
:10217800C6E00025D6E7144A136843F48073136059
:1021880000F08AFE0646104B1B6813F4807FCED100
:1021980000F082FE801B0228F5D90320B0E0084A2F
:1021A800136F43F001031367CFE7054B1A6F42F033
:1021B80004021A671A6F42F001021A67C5E700BFE6
:1021C80000380240000047420070004000F064FE02
:1021D8000646524B1B6F13F0020F08D000F05CFE4E
:1021E800801B41F288339842F3D9032088E0EDB987
:1021F800A369002B00F08380484A926802F00C0221
:10220800082A51D0022B17D0454B00221A6600F03D
:1022180043FE0446414B1B6813F0007F42D000F098
:102228003BFE001B0228F5D9032069E03B4A136CEA
:1022380023F080531364DBE7394B00221A6600F061
:102248002BFE0546354B1B6813F0007F06D000F0C7
:1022580023FE401B0228F5D9032051E0E369226AD6
:102268001343626A43EA8213A26A5208013A43EAB4
:102278000243E26A43EA0263284A5360284B012278
:102288001A6600F009FE0446244B1B6813F0007F11
:1022980006D100F001FE001B0228F5D903202FE02B
:1022A80000202DE000202BE0012B2BD01B4B5B687E
:1022B80003F48001E269914226D103F03F02216ACA
:1022C8008A4223D1616A47F6C0721A40B2EB811F75
:1022D8001ED103F44031A26A5208013AB1EB024F11
:1022E80018D103F07063E26AB3EB026F14D10020D7
:1022F80006E001207047012002E0012000E00020F4
:1023080002B070BD0120FBE70120F9E70120F7E7E3
:102318000120F5E70120F3E70120F1E7003802404A
:102328000000474208B5254B9B6803F00C03042BBB
:102338003FD0082B3FD1214B5A6802F03F025B681F
:1023480013F4800F12D01D4B5968C1F388111C4833
:102358000023A1FB0001FDF7D5FF184B5B68C3F311
:10236800014301335B00B0FBF3F025E0134B5968E0
:10237800C1F3881C4FEA4C11B1EB0C006EEB0E0E4A
:102388004FEA8E1343EA90638101091A63EB0E0347
:10239800DB0043EA5173C90011EB0C0C43F1000355
:1023A800990200234FEA8C2041EA9C51FDF7AAFFCD
:1023B800D3E7034800E0034808BD00BF00380240E7
:1023C80040787D010024F400002800F09B8070B55F
:1023D8000D4604464F4B1B6803F007038B4208D297
:1023E800CBB24C4A1370136803F007038B4240F0DA
:1023F8008B80236813F0020F17D013F0040F04D05A
:10240800454A936843F4E0539360236813F0080F38
:1024180004D0414A936843F4604393603E4A93680A
:1024280023F0F003A1680B439360236813F0010FB6
:1024380032D06368012B21D09A1E012A25D9364A49
:10244800126812F0020F61D033498A6822F0030241
:1024580013438B6000F020FD06462F4B9B6803F06A
:102468000C036268B3EB820F16D000F015FD801BD9
:1024780041F288339842F0D9032042E0264A126894
:1024880012F4003FE0D101203BE0234A126812F029
:10249800007FD9D1012034E01E4B1B6803F00703ED
:1024A800AB4207D9EAB21B4B1A701B6803F007034B
:1024B800AB422DD1236813F0040F06D0164A936857
:1024C80023F4E053E1680B439360236813F0080F8B
:1024D80007D0114A936823F46043216943EAC10392
:1024E8009360FFF71FFF0C4B9B68C3F303130B4A62
:1024F800D35CD8400A4B18600A4B186800F080FC7F
:10250800002070BD012070470120FAE70120F8E79C
:102518000120F6E7003C024000380240A4490008C8
:10252800300000202C000020014B1868704700BFC5
:102538003000002008B5FFF7F7FF044B9B68C3F392
:102548008223034AD35CD84008BD00BF003802404C
:10255800B449000800230F2B00F2D28070B582B076
:1025680060E085685E000324B44025EA0405CC6871
:10257800B4402C438460456825EA02054C68C4F3DE
:1025880000129A402A4342605AE0DC08083450F8A6
:10259800246003F0070295000F22AA4026EA020EE3
:1025A8000A69AA4042EA0E0240F824205CE00422AC
:1025B80000E0002202FA0EF22A430234514D45F897
:1025C8002420514A94686FEA0C0224EA0C054E68EC
:1025D80016F4801F01D04CEA04054B4CA560E46852
:1025E80002EA04054E6816F4001F01D04CEA0405FF
:1025F800454CE560646802EA04054E6816F4003F3D
:1026080001D04CEA0405404C6560246822404D68BE
:1026180015F4803F01D04CEA04023B4C22600133A0
:102628000F2B6BD801229A400C6804EA020C32EA9C
:102638000404F4D14C6804F00304013C012C90D943
:102648004A6802F00302032A09D0C4685D00032225
:10265800AA4024EA02048A68AA402243C2604A685F
:1026680002F00302022A90D004684FEA430E0322C4
:1026780002FA0EF224EA02044A6802F0030202FA9D
:102688000EF2224302604A6812F4403FC7D000228B
:1026980001921E4A546C44F480445464526C02F40F
:1026A80080420192019A9C08A51C164A52F82550AE
:1026B80003F003024FEA820E0F2202FA0EF225EA15
:1026C8000205134A90423FF474AF02F580629042CB
:1026D8000ED002F5806290420CD002F580629042E2
:1026E8000AD002F5806290423FF461AF072261E7A9
:1026F80001225FE702225DE703225BE702B070BDBB
:10270800704700BF00380140003C014000380240DB
:102718000000024000230F2B7CD8F0B52DE00425E3
:1027280000E0002505FA0CFCA44557D004685D00BC
:102738004FF0030C0CFA05FC24EA0C0404604FEA81
:10274800D30E0EF1080E50F82E4003F00705AE0028
:102758000F25B54024EA050440F82E40C46824EA51
:102768000C04C460446824EA02024260826822EAD7
:102778000C02826001330F2B4BD801229A4002EAE7
:10278800010632EA0104F5D14FEA930E0EF1020573
:10279800214C54F8254003F0030C4FEA8C0C0F250C
:1027A80005FA0CF73C401D4DA842BAD005F58065E6
:1027B800A8420DD005F58065A8420BD005F58065C7
:1027C800A84209D005F58065A842A8D00725A9E741
:1027D8000125A7E70225A5E70325A3E7104C2568EF
:1027E80025EA06052560656825EA06056560E56849
:1027F80025EA0605E560A56825EA0606A660064EF0
:102808000EF1020456F8245025EA070546F824502C
:102818008CE7F0BD704700BF00380140000002405F
:10282800003C01400AB18161704709048161704729
:1028380030B405682C6824F480242C600468636034
:102848008368402B05D0036899600368DA6030BC60
:10285800704703689A600368D960F8E710B40368A2
:10286800D9B210390C4AA2FB014212090B4CA25CE6
:10287800C2655F2909D923F47F7323F00303043366
:102888008365806D5DF8044B704723F47F7323F0F4
:1028980003038365F5E700BFABAAAAAA9C49000811
:1028A800836A826992B9012B0AD0022B02D00BB13C
:1028B80000207047C36A13F0807F28D1002070473A
:1028C800C36AB3F1C07F24D000207047B2F5005F1F
:1028D80009D0022B25D9032B25D1C36A13F0807F99
:1028E80023D100207047032B03D8DFE803F014043A
:1028F800140A00207047C36A13F0807F0DD10020AE
:102908007047C36AB3F1C07F09D000207047012027
:10291800704701207047012070470120704701204F
:102928007047012070470020704701207047000061
:1029380070B5044600F0B0FA002C5BD005460223BF
:1029480084F83530002384F834302268136823F083
:102958000103136023681A6812F0010F0AD000F00F
:102968009BFA431B052BF5D920236365032084F8C4
:10297800350070BD1A68204810406168A2680A4393
:10298800E1680A4321690A4361690A43A1690A4364
:10299800E1690A43216A0A430243616A04291ED095
:1029A8001A602668756925F00705636A1D43042BBC
:1029B80007D1A36A1D43E36A1BB12046FFF770FFE6
:1029C80090B975612046FFF749FFE26D3F239340B8
:1029D800836000206065012384F83530C9E7E16A27
:1029E800206B01430A43DBE740236365012084F839
:1029F8003500BEE70120BCE73F8010F038B504463B
:102A0800856D90F8340001282BD0012084F834001B
:102A180094F83500C0B2012804D0002384F834307B
:102A2800022038BD022084F8350000206065204669
:102A3800FFF7FEFEE26D3F239340AB602268136808
:102A480043F016031360236C23B12268136843F024
:102A5800080313602268136843F001031360002021
:102A6800DFE70220DDE770B50446866D00F014FA52
:102A780094F83530DBB2022B06D08023636500233F
:102A880084F83430012070BD05462268136823F0AD
:102A9800160313602268536923F080035361236C83
:102AA800E3B12268136823F00803136022681368EF
:102AB80023F00103136023681B6813F0010F11D082
:102AC80000F0EAF9431B052BF5D9202363650320A1
:102AD80084F83500002384F83430D4E7A36C002B45
:102AE800DFD1E3E7E26D3F239340B360012384F82D
:102AF8003530002084F83400C5E790F83530DBB273
:102B0800022B03D08023436501207047052380F8FA
:102B180035300268136823F0010313600020704702
:102B2800F0B583B0044600230193724B1D68724BC5
:102B3800A3FB0535AD0A876D3E68C26D0823934037
:102B4800334210D003681A6812F0040F0BD01A68C9
:102B580022F004021A60C26D08239340BB60436DE3
:102B680043F001034365E26D01239340334209D0EA
:102B78002268526912F0800F04D0BB60636D43F085
:102B880002036365E26D04239340334209D022684F
:102B9800126812F0020F04D0BB60636D43F00403A7
:102BA8006365E26D10239340334224D02268126893
:102BB80012F0080F1FD0BB6023681A6812F4802F28
:102BC8000DD01B6813F4002F04D1236C9BB1204651
:102BD800984710E0A36C73B1204698470BE01A6839
:102BE80012F4807F03D11A6822F008021A60236C5D
:102BF8000BB120469847E26D20239340334255D0CD
:102C08002268126812F0100F50D0BB6094F835306B
:102C1800DBB2052B0ED023681A6812F4802F33D04C
:102C28001B6813F4002F2AD1636C002B3ED020467A
:102C380098473BE02268136823F016031360226864
:102C4800536923F080035361236CA3B1226813688E
:102C580023F008031360E26D3F239340BB60012318
:102C680084F83530002384F83430236D002B3FD0AE
:102C7800204698473CE0A36C002BE7D1EBE7E36BD9
:102C8800A3B12046984711E01A6812F4807F09D151
:102C98001A6822F010021A60012384F835300023E4
:102CA80084F83430E36B0BB120469847636DFBB171
:102CB800636D13F0010F17D0052384F835302268AF
:102CC800136823F001031360019B01330193AB42A6
:102CD80004D823681B6813F0010FF5D1012384F889
:102CE8003530002384F83430E36C0BB12046984724
:102CF80003B0F0BD30000020B5814E1B90F83500C0
:102D080070470000074AD36823F4E0631B041B0CD8
:102D1800000200F4E060034343F0BF6343F4003370
:102D2800D360704700ED00E000B5194BDB68C3F3D2
:102D38000223C3F1070CBCF1040F28BF4FF0040CA9
:102D480003F1040EBEF1060F18D9033B4FF0FF3E06
:102D58000EFA0CFC21EA0C0199400EFA03F322EA60
:102D68000303194300280BDB0901C9B200F16040D5
:102D780000F5614080F800135DF804FB0023E5E7E7
:102D880000F00F000901C9B2024B1954F4E700BF63
:102D980000ED00E014ED00E0002807DB00F01F0262
:102DA800400901239340024A42F82030704700BF8F
:102DB80000E100E000280CDB00F01F0240090123BD
:102DC80093402030034A42F82030BFF34F8FBFF3BF
:102DD8006F8F704700E100E00138B0F1807F0BD2BF
:102DE8004FF0E0235861054AF02182F823100020B3
:102DF800986107221A6170470120704700ED00E0D2
:102E080010B504460E4B18784FF47A73B3FBF0F301
:102E18000C4A1068B0FBF3F0FFF7DEFF68B90F2C1F
:102E280001D901200AE0002221464FF0FF30FFF7C8
:102E38007BFF054B1C60002000E0012010BD00BF97
:102E48002B000020300000202C00002008B50B4B80
:102E58001A6842F400721A601A6842F480621A60B2
:102E68001A6842F480721A600320FFF74BFF0F20A4
:102E7800FFF7C6FFFEF76CFC002008BD003C0240CF
:102E8800034A1168034B1B780B441360704700BF5B
:102E98006C0200202B000020014B1868704700BF0F
:102EA8006C02002003685A6912F0800F01D00022DA
:102EB8001A61704790F83E30DBB2402B10D003699E
:102EC800B3F5804F1BD0036D002B39D1436CC3F38E
:102ED800C813026803F0060343F0F0031361704758
:102EE800036D2BB9436C026803F0FE03136170474E
:102EF800436C026843F00103DBB21361704790F83A
:102F08003D30DBB2212B0FD0436C026843F0010344
:102F1800DBB21361436B6BB1DB6B5BB10268536867
:102F280043F4006353607047436C026803F0FE0388
:102F38001361EFE7836B33B1DB6B002BEED102E05B
:102F4800036D012B00D07047436CC3F3C8130268AC
:102F580003F0060343F0F1031361F4E7436C0268DE
:102F6800DBB21361436B3BB1DB6B2BB10268536877
:102F780043F4006353607047836B002BFBD0DB6B1B
:102F8800002BF3D1F7E710B48BB090F83E30DAB2EB
:102F9800C16A046B90F83D30DBB2222B0BD00023C2
:102FA800099303685A6909929B690993099B0BB0B5
:102FB8005DF8044B7047036D0BB9402A17D0036DB9
:102FC8001BB90369B3F5404F19D0438D9BB2002B51
:102FD80025D1029303685A6902929A690292029A69
:102FE8001A6842F400721A6000230365DFE7009351
:102FF80003685A6900929B690093009BD7E70023F6
:10300800019303685A6901929A690192019A1A68B0
:1030180042F480721A60036D01330365C7E7438D7C
:103028009BB2012B25D0438D9BB2022B7BD002682B
:10303800136843F48063136003685A6812F4006FDE
:103048000ED011F5803F07D0012905D0082903D0FB
:10305800102901D0202903D15A6842F480525A60BD
:103068000023089303685A6908929B690893089B90
:10307800BAE711F5803F11D0082934D0202932D081
:10308800122C2ED0042940D002293ED010293CD041
:103098000268136823F4806313603BE002681368D6
:1030A80023F48063136003685A6812F4006F0CD02D
:1030B8001A6822F480621A600023039303685A692D
:1030C80003929B690393039B8EE7002204925A693B
:1030D80004929A690492049A1A6842F400721A6077
:1030E80082E70129CED00268136823F48063136055
:1030F8000023069303685A6906929A690692069A0B
:103108001A6842F400721A606EE70268136843F4A2
:10311800806313600023059303685A6905929B69CD
:103128000593059B60E704290ED002290CD01029CD
:103138000AD00268136823F4806313600268136876
:1031480043F40063136004E00268136843F4806387
:10315800136003685A6812F4006F0ED011F5803FAF
:1031680007D0012905D0082903D0102901D020292A
:1031780003D15A6842F480525A60002307930368C7
:103188005A6907929B690793079B2DE7438D9BB26A
:103198005BB1426A036812781A61436A0133436279
:1031A800438D9BB2013B9BB243857047438D9BB2D5
:1031B8005BB103681A69436A1A70436A0133436250
:1031C800438D9BB2013B9BB24385704782B000237D
:1031D80001930E4B1B68DB080D4AA2FB03231B0A55
:1031E80003EB83030193019B013B0193019B33B1E3
:1031F80003681B6813F4007FF5D1002004E0036C1A
:1032080043F020030364012002B07047300000201F
:1032180089B5F814C36AB3F52A0F04D0C36AB3F1A9
:103228002A4F03D070470123C36270470823C36243
:10323800F8E70000002800F0CC8070B5044690F84C
:103248003D30002B77D0242384F83D302268136862
:1032580023F0010313602268136843F400431360EA
:103268002268136823F400431360FFF763F9626868
:103278005A4B9A4264D85A4B98428CBF0023012378
:10328800002B40F0A8805749A1FB00318B0C256822
:103298006A6822F03F0242EA91426A6021680A6A3B
:1032A80022F03F0266684D4DAE424FD801331343BA
:1032B8000B622168CA6922F44F4222F0FF02666855
:1032C800464B9E424CD8431E7600B3FBF6F30133BF
:1032D80040F6FC70034278D0C3F30B031343CB6171
:1032E80021680B6823F0C003E269206A0243134394
:1032F8000B6021688B6823F4034323F0FF032269E2
:10330800E068024313438B602168CB6823F0FF0316
:103318006269A06902431343CB602268136843F0D3
:103328000103136000202064202384F83D302063CB
:1033380084F83E0070BD80F83C30FDF7CDFF82E791
:10334800294B98428CBF0023012399E74FF49675C7
:1033580005FB03F3254DA5FB03539B090133A6E7A2
:10336800A368BBB9451E06EB460CB5FBFCF5013559
:10337800C5F30B05B5FA85F56D0945BBC3B9013829
:1033880006EB4603B0FBF3F30133C3F30B0343F43B
:103398000043A3E7451E06EB860C0CEB8C0CB5FB33
:1033A800FCF50135C5F30B05B5FA85F56D09E4E7BC
:1033B800013806EB860303EB8303B0FBF3F3013319
:1033C800C3F30B0343F4404388E7042386E7012350
:1033D80084E7012070470120ACE700BFA086010008
:1033E8007F841E0083DE1B43FF083D00D34D62101F
:1033F800A8B110B50446242380F83D30026813684C
:1034080023F001031360FEF749F80020206484F8D4
:103418003D00206384F83E0084F83C0010BD012084
:10342800704790F83DC00CF0280CBCF1280F38D13B
:10343800002938D0002A38D030B482B090F83C4007
:10344800012C34D0012480F83C400468256815F02C
:10345800010F03D1256845F00105256005682C6832
:1034680024F400642C60292480F83D40202480F84E
:103478003E400024046441624285428D0285C36255
:10348800019403685A6901929A690192019A80F835
:103498003C405A6842F4E0625A60204602B030BCB0
:1034A80070470220704701207047012070470220B2
:1034B800F4E790F83DC00CF0280CBCF1280F38D187
:1034C800002938D0002A38D030B482B090F83C4077
:1034D800012C34D0012480F83C400468256815F09C
:1034E800010F03D1256845F00105256005682C68A2
:1034F80024F400642C602A2480F83D40202480F8BD
:103508003E400024046441624285428D0285C362C4
:10351800019403685A6901929A690192019A80F8A4
:103528003C405A6842F4E0625A60204602B030BC1F
:103538007047022070470120704701207047022021
:10354800F4E790F83D30DBB2202B01D00220704721
:10355800282380F83D3003681A6812F0010F03D160
:103568001A6842F001021A600268136843F4806323
:1035780013600268536843F4407353600020704737
:1035880090F83D30DBB2282B01D00220704790F82C
:103598003D2090F83E3002F00302134303632023DA
:1035A80080F83D30002380F83E3001680A6822F434
:1035B80080620A6001684A6822F440724A601846CC
:1035C80070477047704708B590F83D30DAB2438DC0
:1035D8009BB283B1416A036809781961436A013370
:1035E8004362438D9BB2013B9BB24385438D9BB2A3
:1035F8000BB9292A00D008BD0268536823F48063F8
:10360800536021230363282380F83D30FDF74CFCE9
:10361800F1E708B590F83D30DAB2438D9BB283B13B
:1036280003681969436A1970436A01334362438D19
:103638009BB2013B9BB24385438D9BB20BB92A2AAF
:1036480000D008BD0268536823F4806353602223C6
:103658000363282380F83D30FDF7B2FBF1E700B59E
:1036680083B090F83D3003F02803282B0CD00023BA
:10367800019302685169019192690192019A80F857
:103688003C3003B05DF804FB0268536823F48063A0
:10369800536011F0040F0BD0002311F0800F09D1F3
:1036A8008289002180F83C101946FDF70FFBE8E7F6
:1036B8000123F2E7028BF4E710B5044690F83D3099
:1036C800DBB2C26A082A01D0202A01D1282B06D0F1
:1036D800212B1FD023686FF480625A6110BD1D4BE7
:1036E800E3622268536823F4E063536023686FF44D
:1036F80080625A612268136823F480631360002390
:103708002363202284F83D2084F83E302046FDF7CC
:10371800E5FBE3E70F4BE36221232363202384F8CF
:103728003D30002384F83E302268536823F4E06378
:10373800536023686FF480625A612268136823F427
:10374800806313602046FFF7ADFB2046FDF7ACFB16
:10375800C4E700BF0000FFFF704708B5C26A90F8D1
:103768003D30DBB2212B00D008BD438D9BB263B145
:10377800426A036812781A61436A01334362438DCF
:103788009BB2013B9BB24385EEE7082A04D0202A6E
:1037980002D012F5803F19D10268536823F4E06320
:1037A80053600268136843F40073136000230363D3
:1037B800202380F83D3090F83E30DBB2402B15D006
:1037C800002380F83E30FFF7FCFECDE7026853681F
:1037D80023F4E063536011230363002380F83E3031
:1037E800202380F83D30FFF7ECFEBDE7002380F88A
:1037F8003E30FFF7B1FFB7E708B590F83D30026DEE
:103808009AB9C36C012B08D0836CC3F307230268F1
:103818001361036D0133036508BD836C0268DBB275
:103828001361036D02330365F6E7DBB2026D012A0B
:1038380023D0026D022A3ED1222B26D0428D92B28D
:103848000AB1212B2AD0428D92B2002AE4D1212B31
:10385800E2D10268536823F4E06353600268136896
:1038680043F40073136000230363202280F83D2093
:1038780080F83E30FFF770FFCEE7836C0268DBB25A
:103888001361036D01330365C6E70268136843F4E7
:1038980080731360036D01330365BDE7426A0368F3
:1038A80012781A61436A01334362438D9BB2013B2C
:1038B8009BB24385B0E7FFF7F5FAADE710B590F88E
:1038C8003D30DBB290F83E20D2B2C46A018D09B90E
:1038D800212B04D0212B3BD0402A37D010BD082CF7
:1038E80004D0202C02D014F5803F19D10268536807
:1038F80023F4E06353600268136843F400731360B1
:1039080000230363202380F83D3090F83E30DBB27B
:10391800402B15D0002380F83E30FFF752FEDDE73C
:103928000268536823F4E0635360112303630023A0
:1039380080F83E30202380F83D30FFF742FECDE787
:10394800002380F83E30FFF707FFC7E7222BC5D1D9
:10395800438D9BB22BB90268536823F4806353608C
:10396800BCE790F83E30DBB2402B0CD0426A0368CB
:1039780012781A61436A01334362438D9BB2013B5B
:103988009BB24385AAE7FFF737FFA7E7704708B55B
:10399800C26A438D9BB2042B14D0438D9BB2032B78
:1039A80022D0438D9BB2022B39D003681A69436A2F
:1039B8001A70436A01334362438D9BB2013B9BB249
:1039C800438510E00268536823F4806353600368FA
:1039D8001A69436A1A70436A01334362438D9BB282
:1039E800013B9BB2438508BD01684B6823F48063A3
:1039F8004B60042A06D0022A04D00268136823F414
:103A08008063136003681A69436A1A70436A013352
:103A18004362438D9BB2013B9BB24385E3E7012A96
:103A28000BD0102A09D0042A3AD0022A38D00168CB
:103A38000B6843F400730B6004E001680B6823F41F
:103A480080630B6003681969436A1970416A4B1CEB
:103A58004362438D9BB2013B9BB2438503681B695C
:103A68004B70436A01334362438D9BB2013B9BB267
:103A7800438501684B6823F440734B60202380F82A
:103A88003D3090F83E30DBB2402B0FD0002380F859
:103A98003E30082A11D0202A0FD0122303630EE0EB
:103AA80001680B6843F480630B60CBE7002380F860
:103AB8003E300363FFF76AFF95E700230363FFF7D0
:103AC80081FD90E738B590F83D30DBB2222B00D06D
:103AD80038BD0446C56A438D9BB2032B15D90368CC
:103AE8001A69436A1A70436A01334362438D9BB271
:103AF800013B9BB24385438D9BB2032BE8D10268FF
:103B0800536823F480635360E2E7C26A022A01D053
:103B1800012B05D92268536823F480635360D7E7E3
:103B2800FFF754FB002835D12268136823F480631B
:103B380013602268536823F4E063536023681A69AA
:103B4800636A1A70636A01336362638D9BB2013BD7
:103B58009BB26385202384F83D3094F83E30DBB275
:103B6800402B09D0002384F83E30082D0CD0202D9E
:103B78000AD01223236309E0002384F83E3023632C
:103B88002046FFF703FFA3E7002323632046FFF740
:103B980019FD9DE72268536823F4E06353602368A6
:103BA8001A69636A1A70636A01336362638D9BB230
:103BB800013B9BB26385202384F83D30002384F8C1
:103BC8003E302046FDF7AAF982E7704700B583B07A
:103BD80000230193806B90F83D20D2B2324B1B68D2
:103BE800DB083249A1FB03131B0A03EB8303C3EB76
:103BF800C3030193019B43B1019B013B01930368FC
:103C08001B6813F4007FF5D103E0036C43F0200335
:103C18000364436B0BB10021D963836B0BB10021A3
:103C2800D96301680B6823F480630B600023438524
:103C3800436B0BB100211965836B0BB1002119652A
:103C480001680B6823F001030B6090F83D30DBB28C
:103C5800602B0ED002F02802282A14D0202380F8E6
:103C68003D30002380F83E30FDF758F903B05DF889
:103C780004FB202380F83D30002380F83E300364A5
:103C8800FFF7A3FFF2E70268136843F0010313602C
:103C98000268136843F480631360002303632823D6
:103CA80080F83D30E0E700BF3000002089B5F81407
:103CB80010B5044690F83D30DBB290F83E20D2B201
:103CC800102A36D0402A34D003F02802282A38D0C7
:103CD8002268526812F4006F07D1602B05D02023A8
:103CE80084F83D30002384F83E30002323632368A2
:103CF8005A6812F4006F48D05A6822F400625A6079
:103D0800626B92F83530DBB2012B20D0444B13653F
:103D1800606BFEF7F2FE002849D02268136823F092
:103D280001031360202384F83D30606B036D9847CE
:103D38003DE0222BC8D121680A6822F400620A609B
:103D4800C2E700232363282384F83D30CFE7A36B21
:103D5800334A1A65A06BFEF7D0FE40B323685A6950
:103D680012F0400F05D01A69636A1A70636A01334A
:103D780063622268136823F001031360202384F828
:103D88003D30A06B036D984711E094F83D20D2B206
:103D9800602A1FD05A6912F0400F05D01A69636A69
:103DA8001A70636A013363622046FDF7B7F8236C23
:103DB80013F00F0F04D02268536823F4E0635360B4
:103DC80094F83D30DBB2226C12F0040F01D0282B9E
:103DD80018D010BD202284F83D20002222645A69A0
:103DE80012F0400F05D01A69636A1A70636A0133CA
:103DF80063622268136823F0010313602046FFF70B
:103E0800E4FED4E7074BE36200232363202284F80F
:103E18003D2084F83E302046FDF760F8D9E700BF22
:103E2800D53B00080000FFFF30B583B0044690F88A
:103E38003D50EDB20268536823F4E06353600023F9
:103E4800019303685A6901921A6842F001021A60E4
:103E5800019B0268136823F48063136003685A683F
:103E680012F4006F38D0222D21D02A2D1FD0426B9A
:103E78001268526892B24285428D92B21AB1026CAF
:103E880042F0040202645A6822F400625A60606BCD
:103E9800FEF734FF01281FD0636B444A1A65606B34
:103EA800FEF72BFEC0B1606B036D984714E0A26B60
:103EB8001268526892B26285628D92B21AB1226C0F
:103EC80042F0040222645A6822F400625A60A06B2D
:103ED800FEF714FF012842D1638D9BB233B32368E8
:103EE8005A6912F0040F0AD01A69636A1A70636A71
:103EF80001336362638D9BB2013B9BB26385236888
:103F08005A6912F0400F0AD01A69636A1A70636A14
:103F180001336362638D9BB2013B9BB26385638D02
:103F28009BB21BB1236C43F004032364236C13BBC3
:103F38002A2D25D094F83D30DBB2282B29D0236BCD
:103F4800222B01D0222D19D100232363202284F8AB
:103F58003D2084F83E302046FCF732FF0EE0A36B8C
:103F6800124A1A65A06BFEF7C8FD0028B4D0A06BF2
:103F7800036D9847B0E72046FFF79AFE03B030BDBF
:103F880000232363282384F83D302046FCF718FFDC
:103F9800D0E7074BE36200232363202284F83D2007
:103FA80084F83E302046FCF799FFE7E7D53B000848
:103FB8000000FFFFF8B5044602685568C66A90F825
:103FC8003E30DBB290F83D10C8B2102B13D0402B16
:103FD80011D0236C002B7AD05369002113F0020F03
:103FE80078D015F4007F75D0236C03B19169204611
:103FF800FFF735FBF8BDD2F818C0516911F0010779
:1040080005D1B6F52A0FF5D0B6F12A4FF2D017B17F
:1040180015F4007F29D111F0080F02D015F4007FA4
:104028002AD111F0020F02D015F4007F28D11CF01C
:10403800040F31D0526812F4006FDBD111F0800FF9
:1040480005D015F4806F02D011F0040F1CD011F0C8
:10405800040FCFD015F4007FCCD0212818D0402BE6
:10406800C8D12046FFF7C8FBC4E72046FFF7D2F8BF
:104078002046FEF71FFFBDE72046FEF76FFFB9E7B2
:104088002046FEF780FFB5E72046FFF717FCB1E7AB
:104098002046FFF762FBADE7536813F4006FA9D120
:1040A80011F0400F05D015F4806F02D011F0040F05
:1040B80009D011F0040F9DD015F4007F9AD0204646
:1040C800FFF765FC96E72046FFF7FCFC92E791694D
:1040D800536983E713F0100F02D015F4007F18D14D
:1040E80021281AD0292818D013F0400F05D015F42C
:1040F800806F02D013F0040F28D013F0040F3FF4A0
:1041080079AF15F4007F3FF475AF2046FFF74EF8FE
:1041180070E72046FFF788FE6CE713F0800F05D0A4
:1041280015F4806F02D013F0040F0BD013F0040FB6
:104138003FF460AF15F4007F3FF45CAF2046FFF713
:1041480025F857E72046FFF73EFA53E72046FFF7E2
:1041580060FA4FE7F8B5044603685D695F6890F850
:104168003E20D2B215F4807F07D017F4807F3CD070
:104178006FF480715961012600E0002615F4007F74
:1041880008D017F4807F05D046F0020623686FF444
:104198000071596115F4806F19D017F4807F16D01B
:1041A800638D99B294F83D30DBB2206B202A1ED083
:1041B80023686FF48061596146F00406102A01D023
:1041C800402A04D12268136843F40073136015F47D
:1041D800006F08D017F4807F05D046F008062368E2
:1041E8006FF400625A6186B9F8BD0026C6E7002957
:1041F800DED1212B05D0292B03D0282BD8D121287B
:10420800D6D12046FFF758FAE1E7236C1E4326640F
:104218002046FFF74DFDE7E790F83D0070470000A6
:1042280070B4036A026A22F0010202624668826977
:1042380022F073020C6844EA020523F002028B683C
:1042480013430D4CA04209D00B4CA0420DD0466040
:1042580085614A684263036270BC704723F00803B3
:10426800CA68134323F00403EEE726F440764A694C
:1042780032438E691643EAE70000014030B4036A0E
:10428800026A22F4807202624568C26922F07302EF
:104298000C68224323F400738C6843EA04230F4C10
:1042A800A04209D00D4CA0420ED04560C2614A68B8
:1042B800C263036230BC704723F40063CC6843EAEE
:1042C800042323F48063EDE725F440554C6945EA5F
:1042D80004158C6945EA0415E7E700BF00000140B2
:1042E80030B4036A026A22F4805202624468C269E6
:1042F80022F4E6420D6842EA052223F400538D6851
:1043080043EA0533074DA84206D04460C2614A68B3
:104318000264036230BC704724F480444D6944EA67
:104328008514F2E70000014010B4036A046A24F01F
:1043380001040462846924F0F00C4CEA021223F0B0
:104348000A030B43826103625DF8044B704710B4A3
:10435800036A046A24F010040462846924F4704C2B
:104368004CEA023223F0A00343EA0113826103629C
:104378005DF8044B7047836823F070030B4343F0E8
:1043880007038360704770470368274A90420ED03E
:10439800B0F1804F0BD0A2F57C42904207D002F5D5
:1043A8008062904203D002F58062904203D123F0EC
:1043B80070034A6813431C4A90421AD0B0F1804FE8
:1043C80017D0A2F57C42904213D002F58062904249
:1043D8000FD002F5806290420BD002F59A329042DB
:1043E80007D002F58062904203D002F580629042C5
:1043F80003D123F44073CA68134323F080034A6946
:1044080013438A68C2620A688262074A904207D0E8
:10441800026842F0040202600122426103607047B0
:104428000A690263F4E700BF0000014040B310B519
:10443800044690F83D30F3B1022384F83D3021461C
:1044480051F8040BFFF7A0FF012384F8463084F8E5
:104458003E3084F83F3084F8403084F8413084F8A6
:10446800423084F8433084F8443084F8453084F886
:104478003D30002010BD80F83C30FDF769F8DBE7DF
:104488000120704740B310B5044690F83D30F3B1B1
:10449800022384F83D30214651F8040BFFF774FFDE
:1044A800012384F8463084F83E3084F83F3084F89D
:1044B800403084F8413084F8423084F8433084F83E
:1044C800443084F8453084F83D30002010BD80F831
:1044D8003C30FFF758FFDBE70120704730B4036A30
:1044E800026A22F0100202624468826922F4E642FB
:1044F8000D6842EA052223F020038D6843EA05137C
:104508000E4DA84209D00D4DA8420ED044608261DC
:104518004A688263036230BC704723F08003CD6829
:1045280043EA051323F04003EDE724F440644D69A2
:1045380044EA85048D6944EA8504E7E70000014000
:1045480038B590F83C30012B66D004460D4601235F
:1045580080F83C300C2A5AD8DFE802F0075959593C
:104568001B5959593059595944000068FFF758FEEA
:104578002268936943F0080393612268936923F0E2
:10458800040393612268936929690B4393610020AE
:104598003EE00068FFF7A2FF2268936943F40063D6
:1045A80093612268936923F4806393612268936915
:1045B800296943EA01239361002029E00068FFF795
:1045C8005DFE2268D36943F00803D3612268D3698A
:1045D80023F00403D3612268D36929690B43D361AB
:1045E800002015E00068FFF77BFE2268D36943F4DA
:1045F8000063D3612268D36923F48063D36122689E
:10460800D369296943EA0123D361002000E001202E
:10461800002384F83C3038BD0220FCE710B48468DD
:1046280024F47F4C42EA03220A4342EA0C028260E5
:104638005DF8044B704790F83C30012B78D010B5EA
:104648000446012380F83C30022380F83D3002689C
:10465800936823F47F4323F0770393600B68602B00
:104668004CD029D8402B54D00CD9502B22D1CA6811
:1046780049680068FFF758FE50212068FFF77BFE65
:10468800002005E0202B0DD009D9302B0AD00120BD
:10469800012384F83D30002384F83C3010BD0BB171
:1046A800102B05D119462068FFF765FE0020EFE7BB
:1046B8000120EDE70120EBE7B3F5805F34D0B3F5D7
:1046C800005F0CD1CB684A6889680068FFF7A6FFCD
:1046D8002268936843F4804393600020D8E7702BE6
:1046E80024D1CB684A6889680068FFF797FF226879
:1046F800936843F0770393600020C9E7CA68496864
:104708000068FFF724FE60212068FFF734FE0020D0
:10471800BEE7CA6849680068FFF706FE40212068BE
:10472800FFF729FE0020B3E70020B1E70120AFE73B
:104738000220704701F01F01012303FA01FC036AFC
:1047480023EA0C030362036A02FA01F10B430362D2
:104758007047000010B504460846002932D194F885
:104768003E30DBB2013B18BF0123002B63D1002888
:1047780041D1022384F83E30012201462068FFF728
:10478800D9FF23682E4A934245D023682C4A934286
:1047980046D0B3F1804F43D0A2F57C4293423FD03C
:1047A80002F5806293423BD002F58062934237D093
:1047B80002F59A32934233D01A6842F001021A6025
:1047C800002037E0042908D008290DD094F841309A
:1047D800DBB2013B18BF0123C7E794F83F30DBB2D7
:1047E800013B18BF0123C0E794F84030DBB2013B1E
:1047F80018BF0123B9E7042805D0082807D00223E9
:1048080084F84130B8E7022384F83F30B4E7022344
:1048180084F84030B0E75A6C42F400425A64B4E776
:104828009A6802F00702062A07D01A6842F00102C5
:104838001A60002010BD0120FCE70020FAE700BF45
:104848000000014090F83C30012B35D010B4012312
:1048580080F83C30022380F83D3003685A689C6831
:1048680022F0700C0A6842EA0C025A600368134A84
:10487800934212D0B3F1804F0FD0A2F57C429342FD
:104888000BD002F58062934207D002F58062934212
:1048980003D002F59A32934204D124F080044A6886
:1048A80014439C60012380F83D30002380F83C309D
:1048B80018465DF8044B704702207047000001401D
:1048C80090F83C30012B22D0012380F83C30CB6893
:1048D80023F440738A68134323F480634A681343BC
:1048E80023F400630A68134323F480530A691343CB
:1048F80023F400534A69134323F48043CA691343DA
:1049080002685364002380F83C3018467047022040
:1049180070470000034AD2F8883043F47003C2F8A5
:104928008830704700ED00E0DFF834D0FFF7F2FF81
:104938000C480D490D4A002302E0D458C4500433F2
:10494800C4188C42F9D30A4A0A4C002301E01360C8
:104958000432A242FBD3FBF75FFCFCF76FFB704706
:10496800000002200000002034000020CC4900088C
:104978003400002070020020FEE70000F8B500BFF8
:10498800F8BC08BC9E467047F8B500BFF8BC08BC28
:044998009E46704780
:10499C0000061016000610160000000000000000B3
:1049AC0001020304060708090000000001020304C9
:0849BC0080B9FF7F010000003B
:0449C40001020008E4
:0449C800D901000809
:1049CC0080FF80FF01000000100070012000180023
:1049DC00001001700020001880808000800001FF12
:1049EC00FF000000000000000000000110000000AB
:0449FC000024F4009F
:040000050800493175
:00000001FF
